{"abi":[{"type":"constructor","inputs":[{"name":"_usdc","type":"address","internalType":"address"}],"stateMutability":"nonpayable"},{"type":"function","name":"acceptOwnership","inputs":[],"outputs":[],"stateMutability":"nonpayable"},{"type":"function","name":"allowance","inputs":[{"name":"owner","type":"address","internalType":"address"},{"name":"spender","type":"address","internalType":"address"}],"outputs":[{"name":"","type":"uint256","internalType":"uint256"}],"stateMutability":"view"},{"type":"function","name":"approve","inputs":[{"name":"spender","type":"address","internalType":"address"},{"name":"value","type":"uint256","internalType":"uint256"}],"outputs":[{"name":"","type":"bool","internalType":"bool"}],"stateMutability":"nonpayable"},{"type":"function","name":"balanceOf","inputs":[{"name":"account","type":"address","internalType":"address"}],"outputs":[{"name":"","type":"uint256","internalType":"uint256"}],"stateMutability":"view"},{"type":"function","name":"buy","inputs":[{"name":"_tokensToBuy","type":"uint256","internalType":"uint256"}],"outputs":[],"stateMutability":"nonpayable"},{"type":"function","name":"callbackGasLimit","inputs":[],"outputs":[{"name":"","type":"uint32","internalType":"uint32"}],"stateMutability":"view"},{"type":"function","name":"cashOut","inputs":[],"outputs":[],"stateMutability":"nonpayable"},{"type":"function","name":"decimals","inputs":[],"outputs":[{"name":"","type":"uint8","internalType":"uint8"}],"stateMutability":"view"},{"type":"function","name":"half","inputs":[],"outputs":[],"stateMutability":"nonpayable"},{"type":"function","name":"keyHash","inputs":[],"outputs":[{"name":"","type":"bytes32","internalType":"bytes32"}],"stateMutability":"view"},{"type":"function","name":"lastRequestId","inputs":[],"outputs":[{"name":"","type":"uint256","internalType":"uint256"}],"stateMutability":"view"},{"type":"function","name":"name","inputs":[],"outputs":[{"name":"","type":"string","internalType":"string"}],"stateMutability":"view"},{"type":"function","name":"numWords","inputs":[],"outputs":[{"name":"","type":"uint32","internalType":"uint32"}],"stateMutability":"view"},{"type":"function","name":"owner","inputs":[],"outputs":[{"name":"","type":"address","internalType":"address"}],"stateMutability":"view"},{"type":"function","name":"rawFulfillRandomWords","inputs":[{"name":"requestId","type":"uint256","internalType":"uint256"},{"name":"randomWords","type":"uint256[]","internalType":"uint256[]"}],"outputs":[],"stateMutability":"nonpayable"},{"type":"function","name":"requestConfirmations","inputs":[],"outputs":[{"name":"","type":"uint16","internalType":"uint16"}],"stateMutability":"view"},{"type":"function","name":"requestIds","inputs":[{"name":"","type":"uint256","internalType":"uint256"}],"outputs":[{"name":"","type":"uint256","internalType":"uint256"}],"stateMutability":"view"},{"type":"function","name":"requestRandomWordsForServer","inputs":[],"outputs":[],"stateMutability":"nonpayable"},{"type":"function","name":"s_requests","inputs":[{"name":"","type":"uint256","internalType":"uint256"}],"outputs":[{"name":"fulfilled","type":"bool","internalType":"bool"},{"name":"exists","type":"bool","internalType":"bool"}],"stateMutability":"view"},{"type":"function","name":"s_subscriptionId","inputs":[],"outputs":[{"name":"","type":"uint256","internalType":"uint256"}],"stateMutability":"view"},{"type":"function","name":"s_vrfCoordinator","inputs":[],"outputs":[{"name":"","type":"address","internalType":"contract IVRFCoordinatorV2Plus"}],"stateMutability":"view"},{"type":"function","name":"setCoordinator","inputs":[{"name":"_vrfCoordinator","type":"address","internalType":"address"}],"outputs":[],"stateMutability":"nonpayable"},{"type":"function","name":"setPoolAddress","inputs":[{"name":"_uniswapPool","type":"address","internalType":"address"}],"outputs":[],"stateMutability":"nonpayable"},{"type":"function","name":"symbol","inputs":[],"outputs":[{"name":"","type":"string","internalType":"string"}],"stateMutability":"view"},{"type":"function","name":"totalSupply","inputs":[],"outputs":[{"name":"","type":"uint256","internalType":"uint256"}],"stateMutability":"view"},{"type":"function","name":"transfer","inputs":[{"name":"to","type":"address","internalType":"address"},{"name":"value","type":"uint256","internalType":"uint256"}],"outputs":[{"name":"","type":"bool","internalType":"bool"}],"stateMutability":"nonpayable"},{"type":"function","name":"transferFrom","inputs":[{"name":"from","type":"address","internalType":"address"},{"name":"to","type":"address","internalType":"address"},{"name":"value","type":"uint256","internalType":"uint256"}],"outputs":[{"name":"","type":"bool","internalType":"bool"}],"stateMutability":"nonpayable"},{"type":"function","name":"transferOwnership","inputs":[{"name":"to","type":"address","internalType":"address"}],"outputs":[],"stateMutability":"nonpayable"},{"type":"event","name":"Approval","inputs":[{"name":"owner","type":"address","indexed":true,"internalType":"address"},{"name":"spender","type":"address","indexed":true,"internalType":"address"},{"name":"value","type":"uint256","indexed":false,"internalType":"uint256"}],"anonymous":false},{"type":"event","name":"BuyPeriodEnded","inputs":[],"anonymous":false},{"type":"event","name":"CoordinatorSet","inputs":[{"name":"vrfCoordinator","type":"address","indexed":false,"internalType":"address"}],"anonymous":false},{"type":"event","name":"GameEnd","inputs":[],"anonymous":false},{"type":"event","name":"OwnershipTransferRequested","inputs":[{"name":"from","type":"address","indexed":true,"internalType":"address"},{"name":"to","type":"address","indexed":true,"internalType":"address"}],"anonymous":false},{"type":"event","name":"OwnershipTransferred","inputs":[{"name":"from","type":"address","indexed":true,"internalType":"address"},{"name":"to","type":"address","indexed":true,"internalType":"address"}],"anonymous":false},{"type":"event","name":"RandomessFullfilled","inputs":[],"anonymous":false},{"type":"event","name":"RemoveUniswapLiquidity","inputs":[],"anonymous":false},{"type":"event","name":"RequestSent","inputs":[{"name":"requestId","type":"uint256","indexed":false,"internalType":"uint256"},{"name":"sender","type":"address","indexed":false,"internalType":"address"}],"anonymous":false},{"type":"event","name":"RoundEnded","inputs":[],"anonymous":false},{"type":"event","name":"Transfer","inputs":[{"name":"from","type":"address","indexed":true,"internalType":"address"},{"name":"to","type":"address","indexed":true,"internalType":"address"},{"name":"value","type":"uint256","indexed":false,"internalType":"uint256"}],"anonymous":false},{"type":"error","name":"ERC20InsufficientAllowance","inputs":[{"name":"spender","type":"address","internalType":"address"},{"name":"allowance","type":"uint256","internalType":"uint256"},{"name":"needed","type":"uint256","internalType":"uint256"}]},{"type":"error","name":"ERC20InsufficientBalance","inputs":[{"name":"sender","type":"address","internalType":"address"},{"name":"balance","type":"uint256","internalType":"uint256"},{"name":"needed","type":"uint256","internalType":"uint256"}]},{"type":"error","name":"ERC20InvalidApprover","inputs":[{"name":"approver","type":"address","internalType":"address"}]},{"type":"error","name":"ERC20InvalidReceiver","inputs":[{"name":"receiver","type":"address","internalType":"address"}]},{"type":"error","name":"ERC20InvalidSender","inputs":[{"name":"sender","type":"address","internalType":"address"}]},{"type":"error","name":"ERC20InvalidSpender","inputs":[{"name":"spender","type":"address","internalType":"address"}]},{"type":"error","name":"GAME_IS_NOT_OVER","inputs":[]},{"type":"error","name":"GAME_STARTED","inputs":[]},{"type":"error","name":"NOT_ENOUGH_ALLOWANCE","inputs":[]},{"type":"error","name":"NOT_WINNER","inputs":[]},{"type":"error","name":"ONLY_OWNER","inputs":[]},{"type":"error","name":"OVER_MAX_TOKEN_POOL_SIZE","inputs":[]},{"type":"error","name":"OnlyCoordinatorCanFulfill","inputs":[{"name":"have","type":"address","internalType":"address"},{"name":"want","type":"address","internalType":"address"}]},{"type":"error","name":"OnlyOwnerOrCoordinator","inputs":[{"name":"have","type":"address","internalType":"address"},{"name":"owner","type":"address","internalType":"address"},{"name":"coordinator","type":"address","internalType":"address"}]},{"type":"error","name":"RANDOMNESS_NOT_SENT","inputs":[]},{"type":"error","name":"TRANSFER_FAILED","inputs":[]},{"type":"error","name":"USERS_CANNOT_PROVIDE_LIQUIDTY","inputs":[]},{"type":"error","name":"ZeroAddress","inputs":[]}],"bytecode":{"object":"0x60e06040526009805460ff199081169091557f389d9fac6c225b7208118274bbd31eaf247d3daf66b6cf3dee99e3e632f7979f600a557fdc2f87677b01473c763cb0aee938ed3341512f6057324a584e5944e786144d70600d55600e80546001600160f01b0319167dd5d517abe5cf79b7e95ec98db0f0277788aff634000000010003000186a0179055620186a0600f556010805482169055601680549091169055348015620000ae57600080fd5b50604051620025df380380620025df833981016040819052620000d19162000475565b600e600a9054906101000a90046001600160a01b0316338060006040518060400160405280600881526020016748616c664c69666560c01b8152506040518060400160405280600381526020016224262360e91b81525081600390816200013991906200054c565b5060046200014882826200054c565b5050506001600160a01b038216620001a75760405162461bcd60e51b815260206004820152601860248201527f43616e6e6f7420736574206f776e657220746f207a65726f000000000000000060448201526064015b60405180910390fd5b600580546001600160a01b0319166001600160a01b0384811691909117909155811615620001da57620001da8162000258565b5050506001600160a01b038116620002055760405163d92e233d60e01b815260040160405180910390fd5b600780546001600160a01b0319166001600160a01b0392831617905581166080524360a0523360c08190526200023e9061271062000304565b612710600f546200025091906200062e565b505062000660565b336001600160a01b03821603620002b25760405162461bcd60e51b815260206004820152601760248201527f43616e6e6f74207472616e7366657220746f2073656c6600000000000000000060448201526064016200019e565b600680546001600160a01b0319166001600160a01b03838116918217909255600554604051919216907fed8889f560326eb138920d842192f0eb3dd22b4f139c87a2c57538e05bae127890600090a350565b6001600160a01b038216620003305760405163ec442f0560e01b8152600060048201526024016200019e565b6200033e6000838362000342565b5050565b6001600160a01b038316620003715780600260008282546200036591906200064a565b90915550620003e59050565b6001600160a01b03831660009081526020819052604090205481811015620003c65760405163391434e360e21b81526001600160a01b038516600482015260248101829052604481018390526064016200019e565b6001600160a01b03841660009081526020819052604090209082900390555b6001600160a01b038216620004035760028054829003905562000422565b6001600160a01b03821660009081526020819052604090208054820190555b816001600160a01b0316836001600160a01b03167fddf252ad1be2c89b69c2b068fc378daa952ba7f163c4a11628f55a4df523b3ef836040516200046891815260200190565b60405180910390a3505050565b6000602082840312156200048857600080fd5b81516001600160a01b0381168114620004a057600080fd5b9392505050565b634e487b7160e01b600052604160045260246000fd5b600181811c90821680620004d257607f821691505b602082108103620004f357634e487b7160e01b600052602260045260246000fd5b50919050565b601f8211156200054757600081815260208120601f850160051c81016020861015620005225750805b601f850160051c820191505b8181101562000543578281556001016200052e565b5050505b505050565b81516001600160401b03811115620005685762000568620004a7565b6200058081620005798454620004bd565b84620004f9565b602080601f831160018114620005b857600084156200059f5750858301515b600019600386901b1c1916600185901b17855562000543565b600085815260208120601f198616915b82811015620005e957888601518255948401946001909101908401620005c8565b5085821015620006085787850151600019600388901b60f8161c191681555b5050505050600190811b01905550565b634e487b7160e01b600052601160045260246000fd5b8181038181111562000644576200064462000618565b92915050565b8082018082111562000644576200064462000618565b60805160a05160c051611f33620006ac6000396000818161050401528181610f720152610fee01526000610f0e01526000818161080a01528181610cb30152610d510152611f336000f3fe608060405234801561001057600080fd5b50600436106101c45760003560e01c80638ac00021116100f9578063b0fb162f11610097578063e9e15b4f11610071578063e9e15b4f14610416578063f2fde38b14610429578063f6a6462c1461043c578063fc2a88c31461044457600080fd5b8063b0fb162f146103a1578063d96a094a146103ca578063dd62ed3e146103dd57600080fd5b806395d89b41116100d357806395d89b41146103305780639eccacf614610338578063a168fa891461034b578063a9059cbb1461038e57600080fd5b80638ac00021146102ef5780638da5cb5b146102f85780638ea981171461031d57600080fd5b8063313ce56711610166578063793cd71e11610140578063793cd71e146102b257806379ba5097146102ba5780637ccfd7fc146102c25780638796ba8c146102dc57600080fd5b8063313ce5671461027157806361728f391461028057806370a082311461028957600080fd5b806318160ddd116101a257806318160ddd146102145780631fe543e31461022657806323b872dd1461023957806324f746971461024c57600080fd5b806306fdde03146101c9578063095ea7b3146101e757806311e540751461020a575b600080fd5b6101d161044d565b6040516101de9190611bb2565b60405180910390f35b6101fa6101f5366004611be8565b6104df565b60405190151581526020016101de565b6102126104f9565b005b6002545b6040519081526020016101de565b610212610234366004611c12565b61071d565b6101fa610247366004611c91565b610772565b600e5461025c9063ffffffff1681565b60405163ffffffff90911681526020016101de565b604051601281526020016101de565b610218600d5481565b610218610297366004611ccd565b6001600160a01b031660009081526020819052604090205490565b610212610796565b610212610911565b600e5461025c906601000000000000900463ffffffff1681565b6102186102ea366004611ce8565b6109bf565b610218600a5481565b6005546001600160a01b03165b6040516001600160a01b0390911681526020016101de565b61021261032b366004611ccd565b6109e0565b6101d1610acc565b600754610305906001600160a01b031681565b610377610359366004611ce8565b60086020526000908152604090205460ff8082169161010090041682565b6040805192151583529015156020830152016101de565b6101fa61039c366004611be8565b610adb565b600e546103b790640100000000900461ffff1681565b60405161ffff90911681526020016101de565b6102126103d8366004611ce8565b610c68565b6102186103eb366004611d01565b6001600160a01b03918216600090815260016020908152604080832093909416825291909152205490565b610212610424366004611ccd565b610f67565b610212610437366004611ccd565b610fd2565b610212610fe3565b610218600c5481565b60606003805461045c90611d34565b80601f016020809104026020016040519081016040528092919081815260200182805461048890611d34565b80156104d55780601f106104aa576101008083540402835291602001916104d5565b820191906000526020600020905b8154815290600101906020018083116104b857829003601f168201915b5050505050905090565b6000336104ed81858561113a565b60019150505b92915050565b336001600160a01b037f000000000000000000000000000000000000000000000000000000000000000016146105425760405163d238ed5960e01b815260040160405180910390fd5b6007546040805160c081018252600d548152600a54602080830191909152600e5461ffff6401000000008204168385015263ffffffff808216606085015266010000000000009091041660808301528251908101909252600182526000926001600160a01b031691639b1c385e919060a08201906105bf90611147565b8152506040518263ffffffff1660e01b81526004016105de9190611d6e565b6020604051808303816000875af11580156105fd573d6000803e3d6000fd5b505050506040513d601f19601f820116820180604052508101906106219190611dd3565b6040805160608101825260008082526001602080840182815285518481528083018752858701908152878552600883529590932084518154945161ffff1990951690151561ff001916176101009415159490940293909317835593518051959650929491936106969391850192910190611ad1565b5050600b8054600180820183556000929092527f0175b7a638427703f0dbe7bb9bbf987a2551717b34e79f33b5b1008d1fa01db901839055600c8390556009805460ff1916909117905550604080518281523360208201527f48b98ad7a8a8dbe21cc82bf98710ad4d2cdd949ccac393692e4d9a1722c162c791015b60405180910390a150565b6007546001600160a01b031633146107625760075460405163073e64fd60e21b81523360048201526001600160a01b0390911660248201526044015b60405180910390fd5b61076d8383836111b8565b505050565b600033610780858285611265565b61078b8585856112e3565b506001949350505050565b60165460ff166107b957604051632a666b6360e01b815260040160405180910390fd5b33600090815260208190526040902054600111156107ea576040516346e9d5e760e11b815260040160405180910390fd5b6040516370a0823160e01b81523060048201526000906001600160a01b037f0000000000000000000000000000000000000000000000000000000000000000169063a9059cbb90339083906370a0823190602401602060405180830381865afa15801561085b573d6000803e3d6000fd5b505050506040513d601f19601f8201168201806040525081019061087f9190611dd3565b6040516001600160e01b031960e085901b1681526001600160a01b03909216600483015260248201526044016020604051808303816000875af11580156108ca573d6000803e3d6000fd5b505050506040513d601f19601f820116820180604052508101906108ee9190611dec565b90508061090e57604051631fa55c0760e11b815260040160405180910390fd5b50565b6006546001600160a01b031633146109645760405162461bcd60e51b815260206004820152601660248201527526bab9ba10313290383937b837b9b2b21037bbb732b960511b6044820152606401610759565b600580546001600160a01b0319808216339081179093556006805490911690556040516001600160a01b03909116919082907f8be0079c531659141344cd1fd0a4f28419497f9722a3daafe3b4186f6b6457e090600090a350565b600b81815481106109cf57600080fd5b600091825260209091200154905081565b6005546001600160a01b03163314801590610a0657506007546001600160a01b03163314155b15610a575733610a1e6005546001600160a01b031690565b60075460405163061db9c160e01b81526001600160a01b0393841660048201529183166024830152919091166044820152606401610759565b6001600160a01b038116610a7e5760405163d92e233d60e01b815260040160405180910390fd5b600780546001600160a01b0319166001600160a01b0383169081179091556040519081527fd1a6a14209a385a964d036e404cb5cfb71f4000cdb03c9366292430787261be690602001610712565b60606004805461045c90611d34565b600033610ae98185856112e3565b6001600160a01b038116600090815260208190526040902054600003610c39576001600160a01b0381166000908152601260209081526040808320805460ff19169055601490915290205460118054610b4490600190611e24565b81548110610b5457610b54611e37565b600091825260209091200154601180546001600160a01b039092169183908110610b8057610b80611e37565b9060005260206000200160006101000a8154816001600160a01b0302191690836001600160a01b03160217905550806014600060118481548110610bc657610bc6611e37565b60009182526020808320909101546001600160a01b031683528201929092526040019020556011805480610bfc57610bfc611e4d565b60008281526020808220830160001990810180546001600160a01b03191690559092019092556001600160a01b0384168252601490526040812055505b6013546001600160a01b03908116908516036104ed5760405163069e4ea360e21b815260040160405180910390fd5b60105460ff1615610c8c5760405163538cb16160e11b815260040160405180910390fd5b610c9881612710611e63565b604051636eb1769f60e11b81523360048201523060248201527f00000000000000000000000000000000000000000000000000000000000000006001600160a01b03169063dd62ed3e90604401602060405180830381865afa158015610d02573d6000803e3d6000fd5b505050506040513d601f19601f82011682018060405250810190610d269190611dd3565b1015610d4557604051630df51a3f60e21b815260040160405180910390fd5b60006001600160a01b037f0000000000000000000000000000000000000000000000000000000000000000166323b872dd3330610d8486612710611e63565b6040516001600160e01b031960e086901b1681526001600160a01b03938416600482015292909116602483015260448201526064016020604051808303816000875af1158015610dd8573d6000803e3d6000fd5b505050506040513d601f19601f82011682018060405250810190610dfc9190611dec565b905080610e1c57604051631fa55c0760e11b815260040160405180910390fd5b600082600f54610e2c9190611e24565b1015610e4b576040516389b1bcdd60e01b815260040160405180910390fd5b610e553383611342565b81600f6000828254610e679190611e24565b90915550503360009081526012602052604090205460ff16610eed57336000818152601260209081526040808320805460ff19166001908117909155601180546014909452918420839055820181559091527f31ecc21a745e3968a04e9570e4425bc18fa8019c68028196b546d1669c200c680180546001600160a01b03191690911790555b600f541580610efe57506011546064105b80610f34575043610f32620151807f0000000000000000000000000000000000000000000000000000000000000000611e7a565b105b15610f63576040517fb11763a296b9934099966abf2fba2446dbe97c521bfff43bb9c178efd8e4ac4590600090a15b5050565b336001600160a01b037f00000000000000000000000000000000000000000000000000000000000000001614610fb05760405163d238ed5960e01b815260040160405180910390fd5b601380546001600160a01b0319166001600160a01b0392909216919091179055565b610fda611378565b61090e816113cd565b336001600160a01b037f0000000000000000000000000000000000000000000000000000000000000000161461102c5760405163d238ed5960e01b815260040160405180910390fd5b60095460ff1661104f57604051632aa9c0fd60e01b815260040160405180910390fd5b6000600261105c60025490565b6110669190611ea3565b9050600060086000600b6001600b805490506110829190611e24565b8154811061109257611092611e37565b906000526020600020015481526020019081526020016000206001016000815481106110c0576110c0611e37565b9060005260206000200154905060036110d860025490565b1161110d57600254600214806110f057506002546003145b15611103576110fe81611477565b61110d565b61110d82826114da565b6040517f6b5fd31b10b00ec94eb179707ba8b02caa87421f956fff0ee903bd6a22db99a490600090a15050565b61076d83838360016115e2565b60607f92fd13387c7fe7befbc38d303d6468778fb9731bc4583f17d92989c6fcfdeaaa8260405160240161118091511515815260200190565b60408051601f198184030181529190526020810180516001600160e01b03166001600160e01b03199093169290921790915292915050565b600083815260086020526040902054610100900460ff1661120f5760405162461bcd60e51b81526020600482015260116024820152701c995c5d595cdd081b9bdd08199bdd5b99607a1b6044820152606401610759565b6000838152600860205260409020805460ff19166001908117825561123691018383611b1c565b506040517f9909f81f717feee38518b90ae4e796f40bd324ed4dd0fc1494508c556bbc036290600090a1505050565b6001600160a01b0383811660009081526001602090815260408083209386168352929052205460001981146112dd57818110156112ce57604051637dc7a0d960e11b81526001600160a01b03841660048201526024810182905260448101839052606401610759565b6112dd848484840360006115e2565b50505050565b6001600160a01b03831661130d57604051634b637e8f60e11b815260006004820152602401610759565b6001600160a01b0382166113375760405163ec442f0560e01b815260006004820152602401610759565b61076d8383836116b7565b6001600160a01b03821661136c5760405163ec442f0560e01b815260006004820152602401610759565b610f63600083836116b7565b6005546001600160a01b031633146113cb5760405162461bcd60e51b815260206004820152601660248201527527b7363c9031b0b63630b1363290313c9037bbb732b960511b6044820152606401610759565b565b336001600160a01b038216036114255760405162461bcd60e51b815260206004820152601760248201527f43616e6e6f74207472616e7366657220746f2073656c660000000000000000006044820152606401610759565b600680546001600160a01b0319166001600160a01b03838116918217909255600554604051919216907fed8889f560326eb138920d842192f0eb3dd22b4f139c87a2c57538e05bae127890600090a350565b6002546003036114c55761148c8160026117e1565b6016805460ff191660011790556040517f677214eaefd2a0c5f84c3a6479dcaf9b47f5d7304269db7719c660f0fae6d51990600090a150565b60025460020361090e5761148c8160016117e1565b6000816040516020016114ef91815260200190565b6040516020818303038152906040529050600081600183516115119190611e24565b8151811061152157611521611e37565b60209101015160f81c60011690506000805b858110156115da576011548203611574576011546115518288611e24565b101561156f5761156a856115658389611e24565b6117e1565b6115da565b600091505b60006011838154811061158957611589611e37565b6000918252602090912001546001600160a01b031690506115ab818786611869565b156115b9576115b9816118e7565b826115c381611eb7565b9350505080806115d290611eb7565b915050611533565b505050505050565b6001600160a01b03841661160c5760405163e602df0560e01b815260006004820152602401610759565b6001600160a01b03831661163657604051634a1406b160e11b815260006004820152602401610759565b6001600160a01b03808516600090815260016020908152604080832093871683529290522082905580156112dd57826001600160a01b0316846001600160a01b03167f8c5be1e5ebec7d5bd14f71427d1e84f3dd0314c0f7b2291e5b200ac8c7c3b925846040516116a991815260200190565b60405180910390a350505050565b6001600160a01b0383166116e25780600260008282546116d79190611e7a565b909155506117549050565b6001600160a01b038316600090815260208190526040902054818110156117355760405163391434e360e21b81526001600160a01b03851660048201526024810182905260448101839052606401610759565b6001600160a01b03841660009081526020819052604090209082900390555b6001600160a01b0382166117705760028054829003905561178f565b6001600160a01b03821660009081526020819052604090208054820190555b816001600160a01b0316836001600160a01b03167fddf252ad1be2c89b69c2b068fc378daa952ba7f163c4a11628f55a4df523b3ef836040516117d491815260200190565b60405180910390a3505050565b60005b8181101561076d576011546000906117fc9085611ed0565b905061182e6011828154811061181457611814611e37565b6000918252602090912001546001600160a01b03166118e7565b6040805160208101869052016040516020818303038152906040528051906020012060001c935050808061186190611eb7565b9150506117e4565b6040516bffffffffffffffffffffffff19606085901b166020820152603481018390526000908190605401604051602081830303815290604052805190602001209050600081600160206118bd9190611ee4565b60ff16602081106118d0576118d0611e37565b1a60011660ff949094169390931495945050505050565b6013546001600160a01b039081169082160361192b576040517f0e8234cf4bb2b0b9a7e7c4f6b93f65aa41687b5ce1cbc063d25661c8071e1dcf90600090a1611936565b611936816001611966565b6001611957826001600160a01b031660009081526020819052604090205490565b101561090e5761090e8161199c565b6001600160a01b03821661199057604051634b637e8f60e11b815260006004820152602401610759565b610f63826000836116b7565b6001600160a01b038116600090815260146020526040902054601180546119c590600190611e24565b815481106119d5576119d5611e37565b600091825260209091200154601180546001600160a01b039092169183908110611a0157611a01611e37565b9060005260206000200160006101000a8154816001600160a01b0302191690836001600160a01b03160217905550806014600060118481548110611a4757611a47611e37565b60009182526020808320909101546001600160a01b031683528201929092526040019020556011805480611a7d57611a7d611e4d565b60008281526020808220830160001990810180546001600160a01b03191690559092019092556001600160a01b03939093168152601483526040808220829055601290935291909120805460ff1916905550565b828054828255906000526020600020908101928215611b0c579160200282015b82811115611b0c578251825591602001919060010190611af1565b50611b18929150611b57565b5090565b828054828255906000526020600020908101928215611b0c579160200282015b82811115611b0c578235825591602001919060010190611b3c565b5b80821115611b185760008155600101611b58565b6000815180845260005b81811015611b9257602081850181015186830182015201611b76565b506000602082860101526020601f19601f83011685010191505092915050565b602081526000611bc56020830184611b6c565b9392505050565b80356001600160a01b0381168114611be357600080fd5b919050565b60008060408385031215611bfb57600080fd5b611c0483611bcc565b946020939093013593505050565b600080600060408486031215611c2757600080fd5b83359250602084013567ffffffffffffffff80821115611c4657600080fd5b818601915086601f830112611c5a57600080fd5b813581811115611c6957600080fd5b8760208260051b8501011115611c7e57600080fd5b6020830194508093505050509250925092565b600080600060608486031215611ca657600080fd5b611caf84611bcc565b9250611cbd60208501611bcc565b9150604084013590509250925092565b600060208284031215611cdf57600080fd5b611bc582611bcc565b600060208284031215611cfa57600080fd5b5035919050565b60008060408385031215611d1457600080fd5b611d1d83611bcc565b9150611d2b60208401611bcc565b90509250929050565b600181811c90821680611d4857607f821691505b602082108103611d6857634e487b7160e01b600052602260045260246000fd5b50919050565b60208152815160208201526020820151604082015261ffff60408301511660608201526000606083015163ffffffff80821660808501528060808601511660a0850152505060a083015160c080840152611dcb60e0840182611b6c565b949350505050565b600060208284031215611de557600080fd5b5051919050565b600060208284031215611dfe57600080fd5b81518015158114611bc557600080fd5b634e487b7160e01b600052601160045260246000fd5b818103818111156104f3576104f3611e0e565b634e487b7160e01b600052603260045260246000fd5b634e487b7160e01b600052603160045260246000fd5b80820281158282048414176104f3576104f3611e0e565b808201808211156104f3576104f3611e0e565b634e487b7160e01b600052601260045260246000fd5b600082611eb257611eb2611e8d565b500490565b600060018201611ec957611ec9611e0e565b5060010190565b600082611edf57611edf611e8d565b500690565b60ff82811682821603908111156104f3576104f3611e0e56fea2646970667358221220bfe495585a34895a687116dd3d7a0baab36782b3689569bf5a7e3625af74683064736f6c63430008140033","linkReferences":{}},"methodIdentifiers":{"acceptOwnership()":"79ba5097","allowance(address,address)":"dd62ed3e","approve(address,uint256)":"095ea7b3","balanceOf(address)":"70a08231","buy(uint256)":"d96a094a","callbackGasLimit()":"24f74697","cashOut()":"793cd71e","decimals()":"313ce567","half()":"f6a6462c","keyHash()":"61728f39","lastRequestId()":"fc2a88c3","name()":"06fdde03","numWords()":"7ccfd7fc","owner()":"8da5cb5b","rawFulfillRandomWords(uint256,uint256[])":"1fe543e3","requestConfirmations()":"b0fb162f","requestIds(uint256)":"8796ba8c","requestRandomWordsForServer()":"11e54075","s_requests(uint256)":"a168fa89","s_subscriptionId()":"8ac00021","s_vrfCoordinator()":"9eccacf6","setCoordinator(address)":"8ea98117","setPoolAddress(address)":"e9e15b4f","symbol()":"95d89b41","totalSupply()":"18160ddd","transfer(address,uint256)":"a9059cbb","transferFrom(address,address,uint256)":"23b872dd","transferOwnership(address)":"f2fde38b"},"id":33}